:020000040800F2
:100000003807002031020008D71800088D170008B3
:10001000D51800083F070008531B00080000000027
:10002000000000000000000000000000DB180008D5
:100030004D07000800000000D9180008DD1800086E
:100040004B0200084B0200084B0200084B0200085C
:100050004B0200084B0200084B0200084B0200084C
:100060004B0200084B0200084B0200084B0200083C
:100070004B0200084B0200084B0200084B0200082C
:100080004B0200084B0200084B0200084B0200081C
:10009000410700084B0200084B0200084B02000811
:1000A0004B0200084B0200084B0200084B020008FC
:1000B0004B0200084B0200084B0200084B020008EC
:1000C0004B0200084B0200084B0200084B020008DC
:1000D0004B0200084B0200084B0200084B020008CC
:1000E0004B0200084B0200084B0200084B020008BC
:1000F0004B0200084B0200084B0200084B020008AC
:100100004B0200084B0200084B0200084B0200089B
:100110004B0200084B0200084B0200084B0200088B
:100120004B0200084B0200084B0200084B0200087B
:100130004B0200084B0200084B0200084B0200086B
:100140004B0200084B0200084B0200084B0200085B
:100150004B0200084B0200084B0200084B0200084B
:100160004B0200084B0200084B0200084B0200083B
:100170004B0200084B0200084B0200080000000080
:100180004B0200084B02000800F002F800F041F8B2
:100190000AA090E8000C82448344AAF10107DA45E2
:1001A00001D100F036F8AFF2090EBAE80F0013F0F3
:1001B000010F18BFFB1A43F001031847C01A0000D3
:1001C000E01A0000103A24BF78C878C1FAD8520764
:1001D00024BF30C830C144BF04680C6070470000C1
:1001E0000023002400250026103A28BF78C1FBD840
:1001F000520728BF30C148BF0B607047642900F028
:10020000EB80002070471FB501F01EFD1FBD10B52B
:1002100010BD00F05AFA1146FFF7F5FF01F0E0FCBF
:1002200000F078FA03B4FFF7F2FF03BC00F080FAA5
:100230000948804709480047FEE7FEE7FEE7FEE77A
:10024000FEE7FEE7FEE7FEE7FEE7FEE704480549B6
:10025000054A064B7047000075190008890100081F
:100260003801002038070020380300203803002020
:1002700053EA020C00F069802DE9F04B4FF00006C4
:10028000002B1FBFB3FA83F503FA05F424FA05F631
:100290005E4012BF1643B2FA82F502FA05F4C5F1C8
:1002A00020051EBF22FA05FC44EA0C04203556EA5C
:1002B000044C4FEA144418BF641C4FF000084FF080
:1002C0000009904271EB030C39D3002919BFB1FA30
:1002D00081F701FA07F6B0FA80F700FA07F6C7F1DE
:1002E00020071EBF20FA07FC46EA0C062037B6FBA3
:1002F000F4FCA7EB0507103F07F01F0BCBF120061E
:100300000CFA0BFB2CFA06F644BFB3460026202F4E
:10031000A4BF5E464FF0000B5BEA060C08BF4FF02F
:10032000010B19EB0B09ABFB027C48EB0608C01B69
:1003300006FB02CC0BFB03CC71EB0C01C1E70B46B7
:10034000024641464846BDE8F08B13B54FF0000029
:100350004FF00001AFF30080BDE81C407047000083
:100360000FB41CB5074B06AA7B446946009005985C
:1003700000F093F90020694600F0A2F91CBC5DF87A
:1003800014FB00005503000070B504468569006841
:10039000C10601D5302600E02026C00707D070BD79
:1003A000D4E9012130469047206A401C20626D1E2E
:1003B000F6D570BD70B5044685690078C00707D1D1
:1003C00070BDD4E9012120209047206A401C2062A2
:1003D0006D1EF6D570BD00002DE9F04106460024E3
:1003E00010687529314616A510D0AFF3008000289B
:1003F00002DA404213A507E031688A0701D512A549
:1004000002E0490704D511A5012401E0AFF3008003
:1004100000210A2206F1240709E0B0FBF2FCB0FB40
:10042000F2F302FB1C00303078541846491C0028B7
:10043000F3D123462A463046BDE8F04100F0CEB85D
:10044000000000002D0000002B0000002000000034
:100450002DE9F05F894604464FF0000ADFF824B129
:10046000FB44C0F820A02046E168884700287DD0E2
:10047000252806D0D4E901219047206A401C20623B
:10048000F1E700255F462046E168884720280646B8
:1004900007DB312E05D2B81910F8200C08B105433E
:1004A000F1E7A80701D525F00405C4F81CA0002732
:1004B000C4F818A02A2E09D0304601F05BFB38B3EF
:1004C00004EB8708303EC8F8186019E059F8041B9F
:1004D000204604EB87029161E1688847012F0646B8
:1004E00018D1E069002820DA25F020051DE0D8F8B1
:1004F000180000EB800006EB40003038C8F8180008
:100500002046E1688847064601F034FB0028EED11A
:10051000012F0AD02E2E08D12046E16888477F1C83
:100520000646022F45F02005C4DBA069002803DA47
:10053000404245F00105A061E80701D025F0100513
:10054000A6B1A6F14100192802D8203645F400656D
:100550004A463146204625604D46FFF74FFE60B1C2
:10056000012807D0ED1D25F0070000E007E000F1AD
:10057000080978E705F1040975E730467AE7206A4B
:10058000BDE8F09F061800004FF0000200B51346CA
:1005900094469646203922BFA0E80C50A0E80C50A3
:1005A000B1F12001BFF4F7AF090728BFA0E80C5054
:1005B00048BF0CC05DF804EB890028BF40F8042B4D
:1005C00008BF704748BF20F8022B11F0804F18BFBA
:1005D00000F8012B70477047704770472DE9F047CE
:1005E0000D4699469246044600F1240801688806A3
:1005F00004D5E06921F01001216000E00120A8424B
:1006000001DD471B00E00027A1697A1902EB090010
:10061000081AA0612078C00602D42046FFF7B4FE75
:10062000002608E0D4E901211AF806009047206A64
:10063000401C761C20624E45F4DB2078C0060AD5AB
:100640002046FFF7A1FE06E0D4E9012130209047C3
:10065000206A401C2062381EA7F10107F4DC07E085
:10066000D4E9012118F805009047206A401C206257
:10067000281EA5F10105F3DC2046FFF79BFE20783C
:10068000000602D50220BDE8F0870120FBE700004C
:1006900001694A1C02610878704700B58FB0CDE946
:1006A00001310021059105497944CDE90310114636
:1006B0006846FFF7CDFE0FB000BD0000E5FFFFFF6D
:1006C0000A6802F8010B0A607047754600F02CF8C2
:1006D000AE4605006946534620F00700854618B02F
:1006E00020B5FFF7B3FDBDE820404FF000064FF006
:1006F00000074FF000084FF0000B21F00701AC4657
:10070000ACE8C009ACE8C009ACE8C009ACE8C00975
:100710008D46704710B50446AFF300802046BDE813
:100720001040FFF77FBD000000487047D800002050
:1007300001491820ABBEFEE7260002007047FEE725
:10074000014800F008B9000020000020704772B690
:10075000FEE7000010B590F82020012A07D0022AF9
:1007600005D0416A41F480214162012010BD3B481F
:10077000D0F8002242F00102C0F80022D0F8002296
:1007800022F47C52C0F80022D0F800224B6A42EAE0
:100790000322C0F800220A7D02F01F0301229A40C2
:1007A000D0F81C329343C0F81C32CB69B3B9D0F8EF
:1007B0000C329343C0F80C328C894B6864F31F43AE
:1007C0004C6900EBC404C4F840320C890B6864F334
:1007D0001F434C6900EBC404C4F84432CB69012BBD
:1007E00016D1D0F80C321343C0F80C320C884B6889
:1007F00064F31F434C6900EBC404C4F840320C8915
:10080000CB6864F31F434C6900EBC404C4F8443262
:100810008B69002BD0F804320ED01343C0F8043299
:100820000B69002BD0F8143208D01343C0F81432EF
:10083000096A012904D008E09343EFE79343F5E701
:10084000D0F81C121143C0F81C12D0F8001221F08D
:100850000101C0F80012002010BD0000006400403B
:10086000704770B590F82040012C05D0022C03D0C1
:10087000416A41F4802128E0046809B32469A4078F
:1008800020D04FF4D874056804EB01142D5915F0ED
:100890000405956005682D591AD0ED085560056866
:1008A0002C5904F00204D4604FF4DA74056804EBA8
:1008B00001142E5906F00F06082E0CD308250DE062
:1008C000E468DCE7416A41F400114162012070BD37
:1008D0006D0D1560E3E72D5905F00F0515610568ED
:1008E0002D59C5F30725956105682C59240C5461D1
:1008F0004FF4DC72046802EB0112A4581C70046807
:10090000A458240A5C700468A458240C9C700468E1
:10091000A258120EDA704FF4DE72046802EB011274
:10092000A4581C710468A458240A5C710468A45873
:10093000240C9C710468A258120EDA71006829B167
:10094000016941F020010161002070BDC16841F0E2
:100950002001C160F8E72DE9F05F0546006800243A
:100960004669D0F804908768D0F80CB0D0F810A091
:10097000D0F81880F10748D0F90714D00121816020
:10098000B80703D5284600F0D1F90CE0780702D566
:100990004FF4006407E0380702D54FF4805402E0BA
:1009A000284600F0C2F9F80516D529684FF4807082
:1009B0008860B80503D5284600F0BAF90CE0780540
:1009C00002D544F4005407E0380502D544F48044CD
:1009D00002E0284600F0ABF9F80316D529684FF479
:1009E00080308860B80303D5284600F0A3F90CE0F6
:1009F000780302D544F4004407E0380302D544F4F8
:100A0000803402E0284600F094F9300707D55FEA09
:100A1000CB6004D52968102044F40074C8607007C6
:100A20004FF0080707D55FEA0B7004D52868C76048
:100A3000284600F057F9B00706D52868C068800737
:100A400002D0284600F050F9700607D55FEACA6068
:100A500004D52968102044F480640861B00607D5E5
:100A60005FEA0A7004D528680761284600F05AF941
:100A7000F00606D528680069800702D0284600F0F5
:100A800052F9B00308D55FEAC96005D5296810207E
:100A90004860284600F048F9F00307D55FEA09707E
:100AA00004D528684760284600F045F9300446D54B
:100AB0005FEA497040D5F00504D55FEAC87001D0FF
:100AC00044F00104B00504D55FEA887001D544F014
:100AD0000204700504D55FEA487001D544F00404AF
:100AE000300529D518F0700F26D008F07000402886
:100AF00015D006DC102809D020280AD0302816D1BD
:100B00000AE050280ED0602811D10EE044F008040D
:100B10000DE044F010040AE044F0200407E044F043
:100B2000400404E044F0800401E044F48074286848
:100B3000816921F070018161296804204860002CDE
:100B400005D0686A204368622846FFF789FEBDE841
:100B5000F09F70B5040003D094F8200010B104E0B9
:100B6000012070BD204600F081F82068016841F046
:100B70000101016000F0DEF90546052604E000F001
:100B8000D9F9401B0A2811D820684068C007F6D060
:100B90002068016821F00201016000F0CBF90546F0
:100BA0000BE000F0C7F9401B0A2806D9606A40F440
:100BB0000030606284F82060D2E7206840688007D7
:100BC000EFD4207E0128206801683DD021F080010B
:100BD0000160607E01282068016838D021F0400162
:100BE0000160A07E01282068016833D021F0200137
:100BF0000160E07E0128206801682ED041F01001DC
:100C00000160207F01282068016829D021F00801B7
:100C10000160607F01282068016824D021F0040170
:100C20000160D4E902010843D4E9041211430843E6
:100C30006168491E08432168C86100206062012084
:100C400084F82000002070BD41F08001C0E741F031
:100C50004001C5E741F02001CAE721F01001CFE7CC
:100C600041F00801D4E741F00401D9E710B586B09E
:100C7000044614216846FFF787FC1749206888421C
:100C800027D116480021026842F000720260006815
:100C900000F00070059011481038026842F0080218
:100CA00002600068022200F0080005900320CDE9F0
:100CB0000210CDE90002092004906946084800F0BE
:100CC0003BF800221146142000F0A2F9142000F095
:100CD00091F906B010BD00000064004040380240A9
:100CE000000C02407047000000B50C4989B08842F2
:100CF00012D107AB6A4600210848FFF7B2FD084948
:100D000007A800F05BFF0098A0F50071053903D13A
:100D1000034907A800F052FF09B000BD20000020E1
:100D20001800002070477047704770477047704741
:100D300070477047704770472DE9F84FDFF8BCA146
:100D40000022012503264FF00F090AF1040BAAF136
:100D5000040E00BF0B6805FA02F42340A34270D1D1
:100D60000F7907F00307012F01D0022F16D18768F2
:100D70004FEA420806FA08FC27EA0C07D1F80CC033
:100D80000CFA08FC4CEA070CC0F808C04768A743F7
:100D90000C79C4F3001494403C4344600C79E44360
:100DA000A4070AD0C4684FEA420C06FA0CF7BC4309
:100DB0008F6807FA0CF72743C7600C7904F0030427
:100DC000022C12D1D40800EB840CDCF82040570729
:100DD000FF0E09FA07F824EA0804D1F8108008FA8F
:100DE00007F848EA0408CCF8208004684FEA420C6F
:100DF00006FA0CF7BC430F7907F0030707FA0CF764
:100E0000274307604C6814F4403F70D03C4C27687F
:100E100047F480472760246822F0030704F48044E5
:100E20000094384C07EB040CDCF8084897074FEAAD
:100E3000177809FA08F7BC43334FB84202D10027AC
:100E400024E054E0314FB84201D101271EE0304F79
:100E5000B84201D1022719E02E4FB84201D1032731
:100E600014E02D4FB84201D104270FE02B4FB842B8
:100E700001D105270AE02A4FB84201D1062705E033
:100E8000284FB84201D1072700E0082707FA08F7E2
:100E90002743CCF80878DAF800405746D1F804C068
:100EA0009C435FEACC2C00D51C433C60DBF800403F
:100EB0005F46D1F804C09C435FEA8C2C00D51C43EC
:100EC0003C60DEF800407746D1F804C09C435FEAFE
:100ED0008C3C00D51C433C60084F083F3C68D1F86F
:100EE00004C09C435FEACC3C00D51C433C60521CD0
:100EF000102AFFF42FAFBDE8F88F0000083C014036
:100F0000443802400030014000000240000402402A
:100F100000080240000C0240001002400014024091
:100F200000180240001C02400AB1816170470904A8
:100F3000FBE70000014880687047000008000020BF
:100F400002488168027811448160704708000020DF
:100F50000B4810B5016841F400710160016841F46B
:100F600080610160016841F480710160032000F03C
:100F70006FF80F2000F006F800F024F8002010BDF4
:100F8000003C024070B50D4D04464FF47A7128784C
:100F9000B1FBF0F00A490968B1FBF0F000F00CFB7E
:100FA00048B9102C07D200222146501E00F030F81C
:100FB00000206C6070BD012070BD000008000020A2
:100FC000140000200A4808B5016841F4804101601E
:100FD000006800F4804000900548001F016841F05F
:100FE00080510160006800F08050009008BD000052
:100FF00044380240002809DB00F01F020121914023
:101000004009800000F1E020C0F8001170470000A6
:10101000F0B40E4B1B680C46C3F30223C3F1070563
:10102000042D00D90425191D072901D2002300E051
:10103000DB1E012606FA05F1491E214099409E401B
:10104000761E16403143F0BC00F084BD0CED00E08C
:10105000064900F0070208684FF6FF03184040EA0F
:101060000220034A10430860704700000CED00E0C6
:101070000000FA052DE9F0470E46050065D0DFF8BF
:101080001481D8F80000F7B200F00700B04207D290
:1010900088F80070D8F8000000F00700B04254D182
:1010A00028683D4C810712D5400703D5206840F4DD
:1010B000E05020602878000703D5206840F46040A5
:1010C00020602068A96820F0F0000843206028789C
:1010D000C0072DD0304968680839012812D002288D
:1010E00013D0032811D00968890700292DDA216857
:1010F00021F0030101432160FFF71CFF814641F20B
:10110000883A0EE009688903EFE709688901ECE78E
:10111000FFF710FFA0EB0901514502D90320BDE8FC
:10112000F0872068696800F00C00B0EB810FEFD108
:10113000D8F80010404601F00701B14207D9077006
:10114000006800F00700B04201D00120E7E72878EE
:10115000400705D52068E96820F4E0500843206086
:101160002878000706D52068296920F4604040EA05
:10117000C100206000F038F82168084AC1F303116B
:10118000515CC8400649086006480068FFF7FAFE4F
:101190000020C4E7003C024008380240521C00080E
:1011A000140000200C00002004480549006809686C
:1011B000044AC1F38221515CC840704714000020EA
:1011C00008380240621C00080448054900680968A4
:1011D000044AC1F34231515CC840704714000020FA
:1011E00008380240621C0008154810B5006810F06D
:1011F0000C02144813D01449042A0FD0082A0ED127
:101200000F4C241F2268236802F03F025B0207D5BF
:101210002068C0F38810A0FB010106E0084610BD5D
:101220002168C1F38811A1FB00010023FFF720F81A
:101230002168C1F30141491C4900B0FBF1F010BD28
:10124000083802400024F40040787D012DE9F84F71
:1012500004006ED02078DFF84C93C007A9F1040594
:101260004AD009F104000168C1F38101012908D0C5
:101270000068C0F3810002280AD1D9F800004002BA
:1012800006D52868800337D560680028E1D033E0B0
:101290006068B0F5803F10D0B0F5A02F286810D05E
:1012A00020F480302860286820F48020286060685E
:1012B000A8B1FFF73FFE06460DE0286840F48030F5
:1012C000F4E740F480202860F7E700BFFFF732FE24
:1012D000801B642873D828688003F7D50CE0FFF7DB
:1012E00029FE064605E000BFFFF724FE801B6428A8
:1012F000F0D828688003F7D42078DFF8AC82800724
:101300004FF0000A3ED5A748001D016811F00C0FF0
:1013100008D00068C0F3810002280BD1D9F8000082
:10132000400207D42868800716D5E068012800D15C
:1013300012E033E1E068B8B10120C8F80000FFF71F
:10134000F9FD064605E000BFFFF7F4FD801B02280B
:10135000C0D828688007F7D52868216920F0F800F0
:1013600040EAC10028600DE0C8F800A0FFF7E2FDE8
:10137000064604E0FFF7DEFD801B02281FD8286820
:101380008007F7D42078000722D5864F8748616907
:10139000703771B101210160FFF7CCFD064604E012
:1013A000FFF7C8FD801B022809D838688007F7D5E9
:1013B0000EE0C0F800A0FFF7BDFD064605E082E0A4
:1013C000FFF7B8FD801B02287DD838688007F7D466
:1013D0002078400768D5DFF8CCB100270BF13C0B33
:1013E000DBF80000C0000BD4DBF8001041F08051A6
:1013F000CBF80010DBF80000012700F080500090CF
:101400006B4E3068C00510D4306840F48070306096
:10141000FFF790FD009005E0FFF78CFD0099401A62
:10142000022850D83068C005F6D55E4EA0686C36EC
:1014300001280FD00528306810D020F0010030605E
:10144000306820F004003060A068B8B1FFF772FD8A
:1014500000900FE0306840F00100F4E740F0040035
:101460003060F7E7FFF766FD0099411A41F28830D6
:10147000814266D830688007F4D50EE0FFF75AFD48
:10148000009007E0FFF756FD0099411A41F28830BD
:10149000814256D830688007F4D42FB1DBF80010B1
:1014A00021F08051CBF80010A069C8B33D49091D57
:1014B0000968C1F3810102294AD00228504607D0A9
:1014C000C8F8600000E03CE0FFF734FD04463BE074
:1014D0004746C8F86000FFF72DFD064605E000BF4F
:1014E000FFF728FD801B02282BD828688001F7D43D
:1014F000D4E907010843A16A2E4A490802EB0141D9
:10150000626A41EA8211084394F82C1040EA0161B2
:10151000C9F8001001203866FFF70CFD044606E00C
:101520003EE000BFFFF706FD001B022809D828682F
:101530008001F7D534E000BFFFF7FCFC001B022858
:1015400002D90320BDE8F88F28688001F4D427E091
:101550000128F7D0D9F80000E26900F48001914237
:101560001CD1226A00F03F01914217D147F6C071A9
:10157000626A0140B1EB821F10D1A26A4FF0FF33C3
:1015800000F4403103EB5202B1EB024F06D194F864
:101590002C1000F07060B0EB016F01D00120D1E79A
:1015A0000020CFE70438024000004742800E474247
:1015B000007000400000FFFF10B5401EB0F1807FBA
:1015C00001D3012010BD4FF0E02460610F216017AE
:1015D00000F0C0FA0020A06107202061002010BDAB
:1015E00070B5040004D094F84100002510B106E065
:1015F000012070BD84F84050204600F023F82420DC
:1016000084F841002068C16821F40051C16020467F
:1016100000F0E0F92068016921F49041016120683F
:10162000416921F02A0141612068C16841F40051FB
:10163000C1606564202084F8410084F8420065633D
:10164000002070BD70B586B0044614216846FEF7D0
:101650009BFF2248204E256800242049143802228E
:101660000323B54218D10D6845F010050D600968D7
:1016700001F010010591016841F00201016000686C
:10168000694600F002000590C0208DE81500072093
:10169000CDE9033012481BE0124EB5421AD10D6855
:1016A00045F020050D60096801F0200105910168F1
:1016B00041F0400101600068694600F0400005907B
:1016C0004FF484408DE815000820CDE9033006482A
:1016D000FFF732FB06B070BD0010014044380240F5
:1016E0000004024000140140001802402DE9F843B4
:1016F000044690F84100984616460D46202802D030
:101700000220BDE8F88385B17EB10020606421200D
:1017100084F84100FFF70EFCA6848146E684A068A9
:101720002027B0F5805F02D003E00120E9E72069BF
:1017300010B12E4600250EE000260CE08021204648
:1017400000F0CEF9A8B9C6B116F8010B21684860BF
:10175000E08C401EE084E08C4B464FF00002CDF858
:1017600000800028EAD14FF04001204600F0B8F98F
:1017700040B184F841700320C3E735F8020BC0F391
:101780000800E3E784F841700020BAE7FEE70000B4
:101790000F4810B50D4901600721416000214FF449
:1017A00080328160C0E903125201426101764176C4
:1017B0008176C17601774177FFF7CBF9002803D016
:1017C000BDE81040FEF7C3BF10BD0000006400403C
:1017D0002000002070B586B014216846FEF7D4FEC4
:1017E0001E480024016841F040010160016801F0D9
:1017F00040010591016841F001010160016801F0BB
:1018000001010591016841F002010160016801F0E8
:1018100002010591016841F008010160016801F0D1
:1018200008010591016841F08001016000680C4EDB
:1018300000F080004FF48065059000222946304674
:10184000FFF772FB01200095CDE90104694630469F
:101850000394FFF771FA06B070BD00003038024003
:10186000001C02400C4810B50A4901604FF4E131F8
:101870004160002181600C22C160C0E904128161D5
:10188000C161FFF7ADFE002803D0BDE81040FEF7B0
:101890005EBF10BD00100140480000200C4810B58C
:1018A0000A4901604FF4E1314160002181600C225E
:1018B000C160C0E904128161C161FFF791FE002897
:1018C00003D0BDE81040FEF742BF10BD0014014038
:1018D00090000020FEE7FEE770477047FFF730BB3F
:1018E00030B593B030216846FEF74EFE14210CA8A7
:1018F000FEF74AFE1D480025016841F08051016055
:10190000006800F0805011901948016841F480414E
:1019100001600068022400F48040119001200390CF
:1019200010200490009406940820CDE90750A820C8
:10193000CDE9090404200B906846FFF787FC08B145
:1019400072B6FEE70CA90F2081E831004FF4A050D9
:101950000F904FF48050109005210CA8FFF78AFBE0
:10196000002801D072B6FEE713B030BD4038024007
:10197000007000400248016841F470010160704746
:1019800088ED00E001680C3151E8002F22F49072DC
:1019900041E80023002BF5D10168143151E8002FF4
:1019A00022F0010241E80023002BF5D1016B01294F
:1019B00009D101680C3151E8002F22F0100241E8F2
:1019C0000023002BF5D1202180F842100021016373
:1019D0007047000070B5044600680169E26821F4B0
:1019E0004051114301612169A068E26908436169BE
:1019F000114308432168CA6849F20C639A430243C1
:101A0000CA6020684169A26921F4407111434161B3
:101A100031492068884202D03049884202D1FFF71C
:101A2000D3FB01E0FFF7C0FBE26900231921642525
:101A30003226B2F5004F626828D0A0FB0101930F57
:101A40009200FEF715FC0146B0FBF5F06FF01802AE
:101A5000504301EB800006EB0010B0FBF5F000F006
:101A6000F002B1FBF5F002EB0012B1FBF5F06FF004
:101A70001803584301EB800006EB0010B0FBF5F0B3
:101A800000F00F0021681044886070BDA0FB0101C8
:101A900092185B41FEF7ECFB0146B0FBF5F002014A
:101AA000B1FBF5F06FF01803584301EB800006EB33
:101AB000C000B0FBF5F000F0F80002EB4002B1FB13
:101AC000F5F0584301EB800006EBC000B0FBF5F0E9
:101AD00000F00700D6E700000010014000140140AC
:101AE0002DE9F843984617460D460446089E24E023
:101AF000701C22D0FFF71EFAA0EB0800B0421AD8E3
:101B0000CEB12068C168490717D5802D15D0402D6A
:101B100013D00168C94309070FD401680025406844
:101B200000902046FFF72EFF0820606484F84050A4
:101B30000120BDE8F8830320FBE72068006835EA50
:101B4000000004D00020B842D2D00020F1E70120EC
:101B5000F9E7FEE70907090E002804DB00F1E020A1
:101B600080F80014704700F00F0000F1E02080F8CA
:101B7000141D704730380A2801D201207047002018
:101B80007047000000B58BB000200121CDE90601AF
:101B90000590009001900290039004900E20CDE9F2
:101BA000081069460448FEF7D5FD002801D0FEF76D
:101BB000CEFD0BB000BD000020000020027843786D
:101BC00002EB03220A808278C37802EB03224A8068
:101BD0000279437902EB03228A808079C8807047BA
:101BE0008AB0FFF7B5F9FFF77BFEFFF7F3FDFFF7CC
:101BF000CFFDFFF737FEFFF751FEFFF7C3FF0A4C9B
:101C00004FF0FF35E188A088CDE900016388228884
:101C100006A102A8FEF7A4FB2B461C2202A9094834
:101C2000FFF764FDEEE70000000000202530366479
:101C30002C253036642C253036642C253036640A49
:101C400000000000900000204FF04070E1EE100A0C
:101C500070470000000000000000010203040607B6
:101C6000080900000000010203040400000800004D
:101C70000000000000020001000010009C1C000891
:101C80000000002020000000C4010008BC1C000867
:101C90002000002018070000E001000800000000FC
:101CA0000000000001000000100000000000000023
:0C1CB0000024F400000000000000000010
:040000050800018965
:00000001FF
